:0300000002022ACF
:0C022A00787FE4F6D8FD75812002027197
:100620004200E0000042000000004200110000C152
:1006300005C101C100C106C104C102C1034100D10D
:0A064000064100DF0042000F000039
:1002B6009000DFE01313543F13229000E0E475F042
:1002C600010204EEEFFD3395E0FC74022DF5827415
:1002D600003CF583E0229000E0E0FEA3E0FF22E48C
:1002E6009000E0F0A3F02274B62DF58274003CF580
:1002F60083E02274A62FF582E43400F58322745F2E
:100306002FF582E43400F583223395E0FC74C42D86
:10031600F58274002274522DF58274003CF583E058
:100326002274A62DF58274002274132FF582E4340C
:0403360000F5832229
:1005640075BB701203BD1206911206B1D2AF3002F0
:10057400047F9980027F771200033003047F9980FF
:10058400027F771200031202E5001202C09000E01D
:10059400E0B40BF5A3E0B4B9F030060512042BC2A5
:0C05A4000630040312004612064B80C211
:1005B0009000A6E0900013F07F0112000E9000154D
:1005C000EFF09000C3E0900016F01202E51202DC9A
:1005D000C3943FEE9400500D12032FE0FF1206BCAF
:0B05E0001202C080E8E4900014F0223A
:1003BD00759850758921758BFD758DFDD28ED2ACDA
:1003CD00759A50759CDC758EF575AF011202E512AC
:1003DD0002DCC39410EE9400500D1202F9E4F0907B
:1003ED0000E01202C480E81202E51202DCC3944759
:1003FD00EE9400500D120304E4F09000E01202C4DC
:10040D0080E81202E51202DCC3943FEE9400500D19
:0E041D0012032FE4F09000E01202C480E822E7
:03002300020504CF
:0D050400C0E0C0F0C083C082C0D075D00838
:1005110030983EC298AF9930001490000FA3E024A8
:100521005F120307EFF090000F1202C3800DEFB4CA
:100531005509D20090000FE4F0A3F0C3900010E041
:10054100944790000FE0940040071205EBC200D2DF
:0805510005309904C299C201B2
:0B055900D0D0D082D083D0F0D0E032B0
:080003002001FDD2018F9922BA
:10064B007F5512000312066F1202E51202DCC394EF
:10065B0010EE9400500D1202F9E0FF12000312028B
:04066B00C080E82241
:0300430002002692
:10002600C0E0E59A30E003539AFEE59A30E10553C5
:070036009AFDC201D0E03287
:0806BC002001FDD2018F9B22F9
:10069100759D03E4F5BD75BC801202E6001202C02F
:1006A1009000E0E07004A3E0640A70F075A8B02245
:0B06B100758AFF758CEDD28CD2A92257
:100153009000A6E06401600302020FEFFD12030F9B
:100163003CF583E0FEB401191202D0B40113EF335E
:1001730095E0FC1202EDB4010812031B04F0020225
:1001830002EE640170641202CA705F1202ED640130
:100193007058EF3395E0FC12031BC39403404BEFFD
:1001A300FB3395E0FA74C42BF58274003AF583E4CB
:1001B300F074522BF58274003AF583E4F090001446
:1001C30004F074A62BF58274003AF583E0FE700503
:1001D3001203278024EE64017025EFFD3395E0FCC4
:1001E3001203273CF583E4F080151202CAB4010F11
:1001F3001202ED700AEF12030F3CF5837401F01243
:1002030002CAFE74B62DF58274008015EFFD339596
:10021300E0FC745F2DF58274003CF583E0FE12036D
:07022300273CF583EEF022F9
:10042B009000E0E4F0A304F01202DCD3940CEE9401
:10043B000050081201531202C080EDA2A1E43390C8
:10044B0000A6F0A297E433900003F0A2B2E433A32A
:10045B00F0A2B3E433A3F0A2B4E433A3F0A2B5E467
:10046B0033A3F0A2B6E433A3F0A2B7E433A3F0A214
:10047B00A2E433A3F0A2A3E433A3F0A2A4E433A336
:0E048B00F0A2A5E433A3F0A2A6E433A3F0226E
:1000460090005FE01392A0A3E0FFD394015007EF66
:1000560013B3928080051202B69280900061E0FF91
:10006600D394015007EF13B3928180051202B69222
:1000760081900062E0FFD394015007EF13B39282A0
:1000860080051202B69282900063E0FFD39401507D
:1000960007EF13B3928380051202B6928390006431
:1000A600E0FFD394015007EF13B392848005120248
:1000B600B69284900065E0FFD394015007EF13B326
:1000C600928580051202B69285900066E0FFD39471
:1000D600015007EF13B392A780051202B692A790BC
:1000E6000067E0FFD394015007EF13B392C4800575
:1000F6001202B692C4900068E0FFD394015007EF55
:1001060013B392C580051202B692C5900069E0FF4E
:10011600D394015007EF13B392C680051202B6922C
:10012600C690006AE0FFD394015007EF13B392879D
:1001360080051202B6928790006BE0FFD3940150BF
:0D01460006EF13B39286221202B6928622B3
:03000B0002033AB3
:10033A00C0E0C0F0C083C082C0D075D008758AFF03
:10034A00758CED9000001202C3D20620052290009F
:10035A00111202C3C3900012E09460900011E0945D
:10036A0009401A9000C37401F090001404F0800D43
:10037A00900011E4F0A3F0C2059000C3F0900000D1
:10038A00E0FAA3E0FB7C007D32FFAE0A120499ED8D
:10039A004C7008D2049000DFE004F0BA030ABB20D4
:1003AA0007900000E4F0A3F0D0D0D082D083D0F040
:0303BA00D0E0325E
:10000E00EF4488F5BC00000000E5BC30E4FB53BCB7
:04001E00EFAFBD2261
:10066F00E4FDFCFFFE1202F9E02DFDE43CFC0FBFA0
:10067F0000010EEF640E4E70ECEC9000B4F0A3EDA1
:01068F00F07A
:010690002247
:1005EB00E4FDFCFFFE120304E02DFDE43CFC0FBF19
:1005FB0000010EEF64454E70ECECFF9000A4E0B5EB
:10060B000704D2028002C2029000A5E0B50503D216
:04061B000322C203F1
:01061F0022B8
:10023600020564E493A3F8E493A34003F68001F275
:1002460008DFF48029E493A3F85407240CC8C333C9
:10025600C4540F4420C8834004F456800146F6DF98
:10026600E4800B0102040810204080900620E47E02
:10027600019360BCA3FF543F30E509541FFEE4938D
:10028600A360010ECF54C025E060A840B8E493A354
:10029600FAE493A3F8E493A3C8C582C8CAC583CA7F
:1002A600F0A3C8C582C8CAC583CADFE9DEE780BE37
:01064A0000AF
:10049900BC000BBE0029EF8DF084FFADF022E4CC47
:1004A900F875F008EF2FFFEE33FEEC33FCEE9DEC10
:1004B900984005FCEE9DFE0FD5F0E9E4CEFD22ED56
:1004C900F8F5F0EE8420D21CFEADF075F008EF2FA0
:1004D900FFED33FD4007985006D5F0F222C398FD91
:0504E9000FD5F0EA222E
:1004EE00C5F0F8A3E028F0C5F0F8E5821582700299
:0604FE001583E038F02236
:00000001FF
