:0300000002039E5A
:0C039E00787FE4F6D8FD7581200203E5AD
:1000260041006600C1034100000041006500C101B6
:02003600C10403
:1000030075BB701202F5D2AF1201FC120046120545
:030013002F80F546
:100046002000030201CA7F9912001690000EE0906C
:10005600001EF064016003020140C2B5900066F024
:1000660000900066E004F0E0B415F59000667401B7
:10007600F0900066E0FFD3940C400302017E740109
:100086002FF582E43400F583E0FF7020900066E0EF
:10009600FE240EF582E43400F583E0700F741E2E04
:1000A600F582E43400F583E4F0020137EFB4012170
:1000B600900066E0FF240EF582E43400F583E0B498
:1000C600010F741E2FF582E43400F5837401F0806D
:1000D60060900066E0FF2401F582E43400F583E0D9
:1000E600B4011F740E2FF582E43400F583E070121C
:1000F600900066E0241EF582E43400F5837402F075
:10010600802F900066E0FF2401F582E43400F58339
:10011600E0701E740E2FF582E43400F583E0B4011E
:1001260010900066E0241EF582E43400F583740323
:10013600F0900066E004F0020077D2B5E490006625
:10014600F000900066E004F0E0B415F590006674E7
:1001560001F0900066E0FF2401F582E43400F583A7
:10016600E0FE741E2FF582E43400F583EEF0900075
:1001760066E004F0E0B40DDA90001FE013B392805D
:10018600A3E013B39281A3E013B39282A3E013B367
:100196009283A3E013B39284A3E013B39285A3E002
:1001A60013B39286A3E013B39287A3E013B392A787
:1001B600A3E013B392A6A3E013B392A5A3E013B3EF
:1001C60092A480057F771200169000667401F09065
:1001D6000066E0FF2466F582E43400F583E0FE74F1
:1001E6002A2FF582E43400F583EEF0900066E004F1
:0601F600F0E0B439DA224A
:1001FC00D290D291E4900066F000900066E004F09A
:10020C00E0B415F52094047F0180027F0090000378
:10021C00EFF02095047F0180027F00900005EFF045
:10022C002096047F0180027F00900007EFF020975A
:10023C00047F0180027F00900009EFF0D290C29100
:10024C00E4900066F000900066E004F0E0B415F570
:10025C002094047F0180027F0090000BEFF020952A
:10026C00047F0180027F0090000DEFF0C290D291CC
:10027C00E4900066F000900066E004F0E0B415F540
:10028C002094047F0180027F00900002EFF0209503
:10029C00047F0180027F00900004EFF02096047F21
:1002AC000180027F00900006EFF02097047F018010
:1002BC00027F00900008EFF0C290C291E4900066BB
:1002CC00F000900066E004F0E0B415F52094047F93
:1002DC000180027F0090000AEFF02095047F0180DE
:0902EC00027F0090000CEFF022EB
:1002F500759850758921758BFD758DFDD28ED2ACA3
:10030500759A50759CDC758EF575AF01E4900066A5
:10031500F0900066E0FFC394475014741E2FF582D9
:10032500E43400F583E4F0900066E004F080E2E454
:10033500900066F0900066E0FFC394105014740EB0
:100345002FF582E43400F583E4F0900066E004F0D4
:1003550080E2E4900066F0900066E0FFC3943850B8
:100365001474672FF582E43400F583E4F090006699
:10037500E004F080E2E4900066F0900066E0FFC3E0
:10038500940C501474012FF582E43400F583E4F0E5
:09039500900066E004F080E22211
:0300230002042AAA
:10042A00C0E0C0F0C083C082C0D075D000C000C098
:0D043A0001C002C003C004C005C006C00719
:10044700309837C298AF99300417900000E0240E17
:10045700F582E43400F583EFF0900000E004F080CB
:100467000BEFB45507D204900000E4F0900000E0D1
:10047700C3941040051204FBC204309904C299C208
:010487000272
:10048800D007D006D005D004D003D002D001D000C8
:0B049800D0D0D082D083D0F0D0E03272
:080016002002FDD2028F9922A5
:10052F007F5512001612055EE4900066F09000668B
:10053F00E0FFC394475017741E2FF582E43400F583
:0F054F0083E0FF120016900066E004F080DF22C8
:030043000204A311
:0B04A300C0E0C083C082C0D075D0084C
:1004AE00E59A30E035539AFEAF9B30011790006508
:1004BE00E02467F582E43400F583EFF0900065E008
:1004CE0004F0800BEFB45507D201900065E4F09074
:1004DE000065E0C394384002C201E59A30E105534D
:0404EE009AFDC202AF
:0904F200D0D0D082D083D0E032DA
:10055E00E4FDFCFFFE741E2FF582E43400F583E00B
:10056E002DFDE43CFC0FBF00010EEF64454E70E51F
:08057E00EC900063F0A3EDF026
:010586002252
:1004FB00E4FDFCFFFE740E2FF582E43400F583E07F
:10050B002DFDE43CFC0FBF00010EEF640E4E70E5B9
:10051B00ECFF90001CE0B50708A3E0B50503D20083
:03052B0022C200E9
:01052E0022AA
:1003AA00020003E493A3F8E493A34003F68001F266
:1003BA0008DFF48029E493A3F85407240CC8C33354
:1003CA00C4540F4420C8834004F456800146F6DF23
:1003DA00E4800B0102040810204080900026E47E8D
:1003EA00019360BCA3FF543F30E509541FFEE49318
:1003FA00A360010ECF54C025E060A840B8E493A3DF
:10040A00FAE493A3F8E493A3C8C582C8CAC583CA09
:10041A00F0A3C8C582C8CAC583CADFE9DEE780BEC1
:0100380000C7
:00000001FF
